:040000005FEF67F057
:08000800046ED8CF05F0E0CF33
:1000100006F00001E9CF0CF0EACF07F0E1CF08F0DD
:10002000E2CF09F0D9CF0AF0DACF0BF0F3CF12F01C
:10003000F4CF13F0FACF14F0F5CF15F0F6CF16F099
:10004000F7CF17F000C00EF001C00FF002C010F0A3
:1000500003C011F09DA030EF00F09EB02BEF02F036
:100060009DAA36EF00F09EBAF0EF0BF0A3AA3CEF8A
:1000700000F0A4BA0EEF02F00EC000F00FC001F0C5
:1000800010C002F011C003F00CC0E9FF07C0EAFF86
:10009000078E08C0E1FF09C0E2FF0AC0D9FF0BC00C
:1000A000DAFF12C0F3FF13C0F4FF14C0FAFF15C04B
:1000B000F5FF16C0F6FF17C0F7FF045006C0E0FFBB
:1000C00005C0D8FF1000F76AD60FF66E000EF722B3
:1000D0000900F5501200766F6C7465737400F76A4E
:1000E000EE0FF66E000EF7220900F5501200736550
:1000F0006C66746573740000F76A080FF66E010E83
:10010000F7220900F55012006964656E746966791A
:100110000000F76A220FF66E010EF7220900F55073
:100120001200626C652E726573657400F76A3C0F8D
:10013000F66E010EF7220900F55012007365726920
:10014000616C3D00F76A540FF66E010EF72209004C
:10015000F550120073657269616C0000F76A6C0FEC
:10016000F66E010EF7220900F5501200696E7465F3
:1001700072636570743D0000F76A880FF66E010EB9
:10018000F7220900F5501200696E7465726365709C
:100190007400F76AA20FF66E010EF7220900F550FF
:1001A0001200736C6F70653D0000F76ABA0FF66E4F
:1001B000010EF7220900F5501200636F6E66696741
:1001C0002E656E61626C652E64796E616D69637710
:1001D0006200F76AE20FF66E010EF7220900F55091
:1001E0001200636F6E6669672E64697361626C6585
:1001F0002E64796E616D696377620000F76A0C0F97
:10020000F66E020EF7220900F5501200636F6E665B
:1002100069672E636865636B2E64796E616D6963CF
:1002200077620000F76A340FF66E020EF7220900BB
:10023000F550120072656164696E672E73696D75A1
:100240006C6174650000F76A560FF66E020EF722B5
:100250000900F550120072656164696E67732E7053
:1002600072696E740000F76A760FF66E020EF7225E
:100270000900F550120072656164696E67732E7231
:10028000657365740000F76A960FF66E020EF7222A
:100290000900F55012006361727472696467650049
:1002A000F76AB00FF66E020EF7220900F550120041
:1002B0006272696768743733303D0000F76ACC0FAB
:1002C000F66E020EF7220900F5501200627269679D
:1002D00068743538383D0000F76AE80FF66E020E94
:1002E000F7220900F55012006272696768743437AA
:1002F000353D0000F76A040FF66E030EF722090081
:10030000F55012006272696768746E65737300005D
:10031000F76A200FF66E030EF7220900F55012005F
:100320006C65643437350000F76A380FF66E030EDB
:10033000F7220900F55012006C656435383800006A
:10034000F76A500FF66E030EF7220900F5501200FF
:100350006C65643733300000F76A680FF66E030E81
:10036000F7220900F55012006C65646F66660000A4
:10037000F76A800FF66E030EF7220900F55012009F
:100380007265616431300000F76A980FF66E030EF3
:10039000F7220900F55012007265616463737600FC
:1003A000F76AB00FF66E030EF7220900F55012003F
:1003B00063616C69627261746500F76ACA0FF66EF8
:1003C000030EF7220900F550120066756C6C746517
:1003D00073740000F76AE40FF66E030EF72209004B
:1003E000F550120072656164696E6700F76AFC0F70
:1003F000F66E030EF7220900F55012007365746C57
:1004000065640000F76A140FF66E040EF722090007
:10041000F550120063616C7465737400EA6A240E0F
:10042000E96E1B50E926000EEA2271CF1AF074CF54
:10043000EFFF1AA203D01D80719871881B2A310E1C
:10044000D8801B5401E21B6A1C501B5C01E11D8219
:10045000A49A3CEF00F0010E5626D8B0572AD8B423
:10046000582AD8B4592A9E903CEF00F05B493530A9
:100470002056256C752E256C752E256C75000D4249
:100480004C4520426F6F74204576656E740D0A00EE
:100490000D424C452048656C6C6F0D0A00000D4202
:1004A0004C4520436F6E6E656374696F6E0D0A0074
:1004B0000D424C4520446973636F6E6E65637469C9
:1004C0006F6E0D0A00000D424C45204D6F64652093
:1004D0004368616E6765642E204572726F72203DBD
:1004E00020256C750D0A00000D424C4520436F6EAF
:1004F0006E656374696F6E20537461747573204305
:1005000068616E6765643A207B25752C2025752C03
:100510002025757D0D0A00000D424C45205772695B
:10052000746520526573706F6E73652E204C656E16
:10053000677468203D2025752E20526573756C7494
:10054000203D20256C750D0A00000D424C452056BB
:10055000616C7565205772697474656E2E204C65E8
:100560006E677468203D2025752E0D0A00000D462B
:1005700065746368696E6720696E6465783A2025E2
:100580006C750D0A00000D56616C7565206861730D
:10059000206368616E6765643A20256C75210D0AD9
:1005A00000000D56616C756520696E6372656D653E
:1005B0006E7465642E2053686F756C642062653AB2
:1005C00020256C75210D0A004E657720766F6C75BD
:1005D0006D652073657474696E67733A20256C7558
:1005E000200D0A000D694F5320417070206F706319
:1005F0006F646525640D0A000D4B65746F6E652090
:100600007465737420636D642072656365697665D3
:10061000642E0D0A00000D416D6D6F6E69612074CE
:1006200065737420636D64207265636569766564C3
:100630002E0D0A000D526573657420757365206375
:100640006F756E74657220636D6420726563656991
:100650007665640D0A000D436C656172206D656DF1
:100660006F727920636D6420726563656976656475
:100670002E0D0A000D4669726D77617265207570E6
:100680006461746520636D6420646574656374657A
:10069000642E0D0A00000D52657365742053746159
:1006A0007465204D616368696E6520636D642064C4
:1006B000657465637465642E0D0A00000D5B4E4F12
:1006C00054455D20556E737570706F72746564204B
:1006D000636D642064657465637465640D0A00006D
:1006E0000D0A424C45204D6F64756C6520494420CD
:1006F00063617074757265642025325825325825FF
:1007000032582532582532582532580D0A000D5BD3
:100710004E4F54455D2049676E6F72656420424CB0
:1007200045204D657373616765207B25782C2025F6
:10073000782C2025782C2025787D0D0A00009EAA93
:10074000FED7ABCF1AF0AECF01F01AA202D0AB9811
:10075000AB88F2EF0BF0090166C9E9FF67C9EAFF50
:100760006851EF5C12E1020E6625E96E000E67210A
:10077000EA6E6A51EF5C09E1030E6625E96E000E30
:100780006721EA6E6B51EF5C02E0000E01D0010EB2
:10079000016E00011200CFC0EAFFCEC0E9FF0901DF
:1007A00072C9EFFFE92AD8B4EA2AEF6A0001CE2B1A
:1007B000D8B4CF2B12000900F5520CE0F6CF66F941
:1007C000F7CF67F9F5CF72F9E6DF66C9F6FF67C9BB
:1007D000F7FFF1D712009EA8FED7AD6E1200060EED
:1007E000FADF000EF8DF020EF6DF060EF4DF010E70
:1007F000F2DF090166510001EEDF090167510001D6
:10080000EADF12000900F6CF6BF9F7CF6CF9F5CFEC
:1008100072F9C1DF6BC9F6FF6CC9F7FF09016A2FD6
:1008200001D002D00001EED700011200EACF71F929
:10083000E9CF70F909016A39F0096C6F6C27E20F92
:100840006D6F320F6F6F6A510F0B6D276D276F271A
:10085000E90F6E6F6E276E2769390F0B6E276F27B2
:100860006E376F376F1F6F3769510F0B6F276C37FC
:10087000070E6B6F0A0E6E076F27FDE36D076E277D
:10088000FDE36C076D27FDE36B076C27FDE3090EA5
:10089000EA6E6B0EE96E070E7015709DE926000E6C
:1008A000EA22E9506F0804E1EA50090801E1708D7D
:1008B000EF50006E08E170BD06D070B915D070B76A
:1008C00002D0200E03D070877099300E0026EACF38
:1008D0006AF9E9CF69F900C072F900015CDF6AC901
:1008E000EAFF69C9E9FF0901EE5070ADDAD70001EE
:1008F000120009016D51016A6C5D03E26CC900F0E0
:100900000CD0006A080E6E6F6C3700366D51005CBB
:10091000D8B0006E01366E2FF7D7000112000150DB
:1009200069C96CF9640E09016D6F0001E2DF00C056
:1009300069F90150300E08E109016AA30FD06AB7C6
:100940000DD06AB9200E04D009016A976A996A81AC
:10095000012601C072F900011EDF090169C96CF9A5
:100960000A0E6D6F0001C5DF00C069F90150300E3D
:1009700008E109016AB70AD06AA108D06AB9200E55
:100980000001012601C072F906DF0901300E692756
:1009900069C972F90001FFDE12008E0E006E67C990
:1009A00001F066C902F0036A015209E102C001F0D8
:1009B000026A080E005E015202E1006A08D0D89077
:1009C00001BE04D0023601360006F9D7019E12009E
:1009D000C69E9E967AC9C9FF020EC6BE05D09EA6C7
:1009E000FED7000EC5BC010E016E1200C580C5B059
:1009F000FED7A00E09017A6F0001EADF75C978F908
:100A00000901796B75C97AF90001E2DF74C97AF9D5
:100A1000DFDF76C97AF9DCDFC584C5B4FED7C580CF
:100A2000C5B0FED7A00E09017A6F0001D1DF0150D9
:100A30000901779101B0778177A10DD0C582C5B248
:100A4000FED7A00E7A6F0001C3DF01500901779134
:100A500001B07781F1D7C584C5B4FED7000112007B
:100A6000090E0901716F6C0E706F726B72BF03D04B
:100A70007251030819E3036A7251006EE8BE03065F
:100A80007025E96E71510320EA6EEFCF76F96BC9DC
:100A900075F96AC974F90001A9DF09017251722B55
:100AA0006A2BD8B46B2BE2D7000112000900F6CFF5
:100AB00067F9F7CF68F9F550A4A8FED7736E67C938
:100AC000F6FF68C9F7FF0901662F01D002D00001C7
:100AD000EDD700011200EACF6EF9E9CF6DF90901F7
:100AE0006739F009696F6927E20F6A6F320F6C6F1F
:100AF00067510F0B6A276A276C27E90F6B6F6B270B
:100B00006B2766390F0B6B276C276B376C376C1FA5
:100B10006C3766510F0B6C276937070E686F0A0E2A
:100B20006B076C27FDE36A076B27FDE369076A27FC
:100B3000FDE368076927FDE3090EEA6E680EE96EBA
:100B4000070E6D156D9DE926000EEA22E9506C082E
:100B500004E1EA50090801E16D8DEF50006E08E1F3
:100B60006DBD06D06DB90CD06DB702D0200E03D08C
:100B70006D876D99300E00260050A4A8FED7736EC5
:100B8000EE506DADE3D700011200200E090167A9F8
:100B9000300E686F66C900F000AE08D0001E002A53
:100BA00000C066F92D0E686F678F6781015066C9B6
:100BB0006CF9640E6D6F00019CDE00C066F9300EAA
:100BC00001240901696F66C96CF90A0E6D6F000195
:100BD00090DE300E002409016B6F300E01246A6F25
:100BE00068C900F0300E695D04E0678367BF678500
:100BF00012D068C969F9200E686F300E6A5D04E092
:100C0000678167BF678307D0D8A4678104E169C99A
:100C10006AF9200E696F67B505D067B307D067B171
:100C200009D00CD068C972F90001B5DD69C972F943
:100C30000001B1DD6AC972F90001ADDD6BC972F95D
:100C40000001A9DD2CEF0AF009016B516D19800B31
:100C50006F6F6BAF05D06A1F6B1F6A2BD8B46B2BFD
:100C60006DAF05D06C1F6D1F6C2BD8B46D2B6A5106
:100C70006C03F3CF01F0F4CF00F06D03F3500026C6
:100C80006B516C03F3500020026E6FAF05D0011E54
:100C9000021E012AD8B4022A0001120009016BBF0A
:100CA00011D00F0E006E6A3900160A0E005C03E2C6
:100CB000300E002602D06B51002600C072F90001F0
:100CC0006ADD09010F0E6A170A0E6A5D02E2300E34
:100CD00002D06B9F6B516A276AC972F900015BDD14
:100CE00012000901696B6851695D1BE2036A030127
:100CF0004951480F016E020E032209016951662510
:100D0000E96E000E6721EA6EEFCF6CF903C0EAFFCF
:100D100001C0E9FF6CC9EFFF0301492B0901692BF1
:100D2000E2D70001EEEF0BF0030E0801476F520E01
:100D3000466F030E496F560E486F0901526B020E43
:100D400008014D6F050E4C6F47C867F946C866F934
:100D5000800E0901686F696B6A6B6B6B0001FBDCCD
:100D600001520FE0080ECF6F520ECE6F7E0EF66E60
:100D7000040EF76E20DD520ECE5D0901526FE3EFD7
:100D80000BF047C867F946C866F90901686B696BDB
:100D90006A6B010E6B6F0001DEDC01520FE0080E82
:100DA000CF6F520ECE6F900EF66E040EF76E03DD0F
:100DB000520ECE5D0901526FE3EF0BF047C867F9A1
:100DC00046C866F9800E0901686F100E696F030E40
:100DD0006A6F6B6B0001BFDC01520FE0080ECF6F32
:100DE000520ECE6F9E0EF66E040EF76EE4DC520EBF
:100DF000CE5D0901526FE3EF0BF047C867F946C8B3
:100E000066F9800E0901686F030E696F6A6F040E40
:100E10006B6F0001A0DC015214E0080ECF6F520E80
:100E2000CE6FB00EF66E040EF76EC5DC520ECE5DC0
:100E30000901526F020E666F676F0001D0DCE4EFAC
:100E40000BF047C867F946C866F90901686B020EDE
:100E5000696F060E6A6F010E6B6F00017CDC015238
:100E600035E049C854F948C853F954C903F0090199
:100E700053C9E9FF03C0EAFFECCF67F9ED52EFCFAA
:100E800066F9080E0001CF6F520ECE6FC60EF66ED9
:100E9000040EF76E1B0E09016A6F0001B3DC100E21
:100EA000E96E67C96AF966C969F9C0DC0D0E090106
:100EB000726F000170DC0A0E0901726F00016BDCB9
:100EC000520ECE5D0901526FE3EF0BF047C867F990
:100ED00046C866F9800E0901686F030E696F020E3D
:100EE0006A6F6B6F000137DC01525DE0080148C892
:100EF000E9FF49C8EAFFEFCF66F9010E4825E96E20
:100F0000000E4921EA6EEFCF67F9020E4825E96E1F
:100F1000000E4921EA6EEFCF68F9080E0001CF6F8D
:100F2000520ECE6FE80EF66E040EF76E210E09011A
:100F30006A6F000167DC66C969F91B0E09016A6FF7
:100F40000001EDDC2C0E0901726F000124DC200E83
:100F50000901726F00011FDC67C969F91B0E0901E5
:100F60006A6F0001DCDC2C0E0901726F000113DCDA
:100F7000200E0901726F00010EDC68C969F91B0EB1
:100F800009016A6F0001CBDC130EF66E050EF76ED9
:100F9000030E09016A6F000135DC520ECE5D0901B6
:100FA000526FE3EF0BF047C867F946C866F90901CD
:100FB000686B020E696F6A6F6B6B0001ABEC03F03C
:100FC000015254E049C856F948C855F9010E0801C4
:100FD0004625E96E000E4721EA6EEFCF66F956C945
:100FE00003F0090155C9E9FF03C0EAFFECCF68F936
:100FF000ED52EFCF67F9080E0001CF6F520ECE6FA2
:10100000180EF66E050EF76E1E0E09016A6F0001CE
:1010100002EC04F066C969F91B0E09016A6F000150
:101020007EDC380EF66E050EF76E0B0E09016A6F48
:10103000000102EC04F0100EE96E68C96AF967C994
:1010400069F916EC04F00D0E0901726F0001CBEC8A
:1010500003F00A0E0901726F0001CBEC03F0520E8F
:10106000CE5D0901526F0401532BADD347C867F918
:1010700046C866F9800E0901686F070E696F020E97
:101080006A6F6B6B0001ABEC03F00152D8B480D2F5
:10109000010E08014625E96E000E4721EA6EEFCFEA
:1010A00066F9080E0001CF6F520ECE6F4A0EF66E33
:1010B000050EF76E1D0E09016A6F000102EC04F0C7
:1010C00066C969F91B0E09016A6F000128DC690E07
:1010D000F66E050EF76E030E09016A6F000102EC51
:1010E00004F0520ECE5D0901526F49C858F948C844
:1010F00057F9020E5725E96E000E5821EA6EECCF23
:101100005AF9ED52EFCF59F95C6B5B6B5E6B5D6B1F
:101110005951006E5A51036E035005E12D0E005CCB
:10112000000111E00901035005E1440E005C0001DB
:1011300040E00901035006E1380E005C0001D8B41C
:10114000ECD0090124D2070E09015725E96E000EE3
:101150005821EA6E5E6BEFCF5DF9080E0001CF6F8C
:10116000520ECE6F6E0EF66E050EF76E110E090161
:101170006A6F000102EC04F0100EE96E5EC96AF9B4
:101180005DC969F916EC04F00D0E0901726F0001DA
:10119000CBEC03F00A0E0901726F0001CBEC03F0F7
:1011A000520ECE5D0901526F5EC956F45DC955F409
:1011B000EED1070E09015725016E000E582101C01E
:1011C0005BF95C6F5CC903F05BC9E9FF03C0EAFF30
:1011D000ECCF5EF9ED52EFCF5DF9080E0001CF6F55
:1011E000520ECE6F860EF66E050EF76E140E0901C6
:1011F0006A6F000102EC04F0100EE96E5EC96AF934
:101200005DC969F916EC04F09D0EF66E050EF76ED9
:10121000030E09016A6F000102EC04F0520ECE5D6C
:101220000901526F010E5D27000E5E23080E0001BA
:10123000CF6F520ECE6FA20EF66E050EF76E1F0E1A
:1012400009016A6F000102EC04F0100EE96E5EC93C
:101250006AF95DC969F916EC04F0C40EF66E050E64
:10126000F76E030E09016A6F000102EC04F0520EE2
:10127000CE5D0901526F5F6B020E606F626B470EAD
:10128000616F080E6025666F66510001EBEC03F09C
:10129000000EEBEC03F0040E09016025666F665149
:1012A0000001EBEC03F0020EEBEC03F0000EEBECB4
:1012B00003F009016151666F676B66510001EBEC49
:1012C00003F062C961F90901626B6151666F676B76
:1012D00066510001EBEC03F009015F510001EBECFA
:1012E00003F0090160510001EBEC03F009016051CA
:1012F0006007000A11E05EC903F05D51E96E03C0AA
:10130000EAFFEFCF66F966510001EBEC03F009014B
:101310005D2BD8B45E2BEBD73AD1070E09015725C8
:10132000016E000E582101C04AF808014B6F4F6B47
:101330004F51080819E34F514C25016E000E4D2105
:10134000036E08014F514A25E96E000E4B21EA6EEB
:10135000EFCF68F9090103C0EAFF01C0E9FF68C9DE
:10136000EFFF08014F2BE4D705C24EF807C251F832
:1013700006C250F85151010804E30BE150512B080B
:1013800008E25151060807E2FF0A03E15051D00874
:1013900002E2516B506B5151000805E2FF0A0AE16D
:1013A00050512C0807E3515107083FE303E1505126
:1013B000CF083BE351C867F950C866F90001CDEC8E
:1013C00004F003C069F902C068F901C067F900C000
:1013D00066F909016B6B1A0E6A6F03C06FF902C0E0
:1013E0006EF901C06DF900C06CF9000130EC05F038
:1013F000C80EF66E050EF76E150E0901666F000138
:1014000056EC05F0100EE96E51C867F950C866F940
:101410006BEC05F0E00EF66E050EF76E030E09019B
:10142000666F000156EC05F00801080E0001CF6F51
:10143000520ECE6FE40EF66E050EF76E0F0E09011A
:101440006A6F000102EC04F04EC866F9180E09013B
:10145000676F0001C5EF05F00D0E0901726F000105
:10146000CBEC03F00A0E0901726F0001CBEC03F024
:10147000520ECE5D0901526F04015453D8A486D098
:1014800008014E51000A00010BE0010A1AE0030AAC
:1014900029E0010A38E0FC0A47E0050A55E066D079
:1014A000010ED06F080ECF6F520ECE6FF80EF66E93
:1014B000050EF76EDBEC03F0520ECE5D0901526FA4
:1014C00063D0020ED06F080ECF6F520ECE6F160E85
:1014D000F66E060EF76EDBEC03F0520ECE5D0901E0
:1014E000526F52D0020ED06F080ECF6F520ECE6FD9
:1014F000340EF66E060EF76EDBEC03F0520ECE5D88
:101500000901526F41D0040ED06F080ECF6F520EFA
:10151000CE6F560EF66E060EF76EDBEC03F0520E33
:10152000CE5D0901526F30D0D069080ECF6F520ED8
:10153000CE6F740EF66E060EF76EDBEC03F0520EF5
:10154000CE5D0901526F20D0FA0ED06F080ECF6F1A
:10155000520ECE6F960EF66E060EF76EDBEC03F0B3
:10156000520ECE5D0901526F0FD00001080ECF6FF1
:10157000520ECE6FBC0EF66E060EF76EDBEC03F06D
:10158000520ECE5D0901526F526B040109011BD14D
:1015900047C867F946C866F90901686B060E696FA6
:1015A0006A6B020E6B6F0001ABEC03F00152D8B412
:1015B0008AD049C864F948C863F90901656B65BFF9
:1015C00003D0655105082EE3036A65514A0F016E89
:1015D000030E032201C066F903C067F9036A65516F
:1015E000006EE8BE0306686F03C069F903C06BF9BB
:1015F0006A6F6D6B020E6C6F000124EC06F002C086
:1016000003F0015009016325E96E64510220EA6E7E
:10161000EFCF68F967C9EAFF66C9E9FF68C9EFFF5C
:10162000652BCDD7080E0001CF6F520ECE6FE00EA6
:10163000F66E060EF76E190E09016A6F000102ECD4
:1016400004F04AC36AF9370E09016B6F00014EECD2
:1016500006F04BC36AF9370E09016B6F00014EECBF
:1016600006F04CC36AF9370E09016B6F00014EECAE
:1016700006F04DC36AF9370E09016B6F00014EEC9D
:1016800006F04EC36AF9370E09016B6F00014EEC8C
:1016900006F04FC36AF9370E09016B6F00014EEC7B
:1016A00006F00D0E0901726F0001CBEC03F00A0E7B
:1016B0000901726F0001CBEC03F0520ECE5D0901FF
:1016C000526F81D00001080146C8E9FF47C8EAFF10
:1016D000EFCF66F9010E4625E96E000E4721EA6E4E
:1016E000EFCF67F9020E4625E96E000E4721EA6E3C
:1016F000EFCF68F9030E4625E96E000E4721EA6E2A
:10170000EFCF69F9080E0001CF6F520ECE6F0E0EAB
:10171000F66E070EF76E1D0E09016A6F000102ECEE
:1017200004F066C96AF9570E09016B6F00014EECAF
:1017300006F02C0E0901726F0001CBEC03F0200EB5
:101740000901726F0001CBEC03F067C96AF9570E0B
:1017500009016B6F00014EEC06F02C0E0901726F4F
:101760000001CBEC03F0200E0901726F0001CBECFD
:1017700003F068C96AF9570E09016B6F00014EEC5E
:1017800006F02C0E0901726F0001CBEC03F0200E65
:101790000901726F0001CBEC03F069C96AF9570EB9
:1017A00009016B6F00014EEC06F0390EF66E070E64
:1017B000F76E030E09016A6F000102EC04F0520E8D
:1017C000CE5D0901526F0001080E0901676F520ECC
:1017D000666F52C968F9000171EF06F019EF0CF05D
:1017E0009FEF03F001C042F8036A04015251520F07
:1017F000E96E030E0320EA6E42C8EFFF522B5251EE
:10180000000801E1526B030E0801446F520E436F52
:10181000010E4325E96E000E4421EA6E040EEF240A
:10182000456F45510401525D05E3526B000194EF91
:1018300006F004019E9A00013CEF00F0426C7565D1
:10184000746F6F746820496E697469616C697A6538
:1018500064200D0A000053687574646F776E20620F
:101860006C7565746F6F7468200D0A00526573653E
:101870007474696E6720424C4520256C752074692C
:101880006D65732E2E2E0D0A0D0A00004572726FC3
:101890007220626974202575207365740D0A00003A
:1018A0004572726F72206269747320636C65617235
:1018B00065640D0A00004572726F722062697425BA
:1018C0007520636C65617265640D0A005374617202
:1018D0007420496E6465783A20256C752E20537407
:1018E0006F7020496E6465783A203078256C752ECB
:1018F0000D0A0000537461727420496E6465783A71
:1019000020256C752E2053746F7020496E646578A5
:101910003A203078256C752E0D0A000053696D75DC
:101920006C61746520616E6420736176652031306E
:10193000207465737420726573756C74730D0A007E
:101940002564207265636F72640D0A0053746172BE
:101950007420496E6465783A20256C752E20537486
:101960006F7020496E6465783A20256C752E0D0ADB
:101970000000537461727420496E6465783A2025C2
:101980006C752E2053746F7020496E6465783A2010
:10199000256C752E0D0A00005265636F726423205A
:1019A00054657374204D6F646520546573742054BE
:1019B000696D6520546573742053636F726520549C
:1019C0006573742053746174757320546573742047
:1019D00053746174652054696D65205374616D7032
:1019E00000002020256420202020202020202025E9
:1019F0006C6420202020202020256C7520202020B1
:101A00002020202020252E3466092025640920204E
:101A100020202020256400002020202020202025B8
:101A200032643A2532643A2532642C20442025322F
:101A300064204D2025326420592025326420000086
:101A400056616C75653A20000D0A476F7420697401
:101A50003A20252E33660D0A0000204661696C6528
:101A60006420736574206D656D20706167652078F2
:101A7000787878200D0A0D0A0000204661696C65AF
:101A80006420736574206D656D2070616765200D3D
:101A90000A00556E6974206973207265616479204B
:101AA000666F722074657374696E672C20706C6544
:101AB0006173652073746172742062726561746809
:101AC000696E6720696E746F20746865206D6F752C
:101AD00074682070696563650D0A0D0A00000D0ABF
:101AE0000D0A0000202A2A2A2A2A2A2A20424D45A5
:101AF000207374617465206D616368696E6520662A
:101B000061696C6564202A2A2A2A2A2A2A00256CFF
:101B100075202F202530356C75206D733A20737435
:101B20006174652025642C20256C753B2054656DFF
:101B30007020252E32663B2043757272656E74509C
:101B4000726573737572653A20256C753B2042612E
:101B5000736550726573737572653A20256C753BB9
:101B60002064656C7461503A20256C752F256C7566
:101B70003B20666C6F774C504D3A20252E32663BE9
:101B80002064656C7461566F6C3A20252E32663B7A
:101B900020416363756D756C61746564566F6C7517
:101BA0006D653A20252E3266206D6C0D0A00466167
:101BB000696C656420424D455F534F46545F524502
:101BC000534554200D0A0000424D452043616C6985
:101BD0006220496E6974206661696C6564200D0A33
:101BE0000000426174746572792072656164696E87
:101BF00067203D20256C64000D0A53687574646F7E
:101C0000776E2065787465726E616C2064657669A4
:101C10006365732E2E2E0D0A00000D0A536875742D
:101C2000646F776E2070726F636573736F722E2EA0
:101C30002E0D0A00486172647761726520666169E1
:101C40006C75726520636F646520256C750D0A00E4
:101C50004861726477617265206661696C7572654E
:101C60002C20756E697420697320736875747469AB
:101C70006E6720646F776E0D0A0042726967687440
:101C80006E657373206E6F742063616C696272613C
:101C9000746564202D20307825780D0A0000256CAD
:101CA00064204020256C6400256C64204020256C55
:101CB0006400256C64204020256C640057686974BA
:101CC0006562616C616E63653A2000005742204393
:101CD0006F65666666696369656E74733A200000B5
:101CE0004D6561737572696E6720627265617468B3
:101CF0002073616D706C652E2E2E0D0A54696D6512
:101D00002873292C20526564203733302C204F72E1
:101D1000616E6765203538382C20426C756520343B
:101D200037350D0A00000D0A0D0A2A2A2A2A2A43ED
:101D300061727472696467652072656D6F7665643F
:101D400020647572696E672072656164696E672AC6
:101D50002A2A2A2A0D0A0D0A00000D0A416E616C1A
:101D6000797A696E6720776574206361727472692D
:101D70006467652E2E2E0D0A54696D652873292C13
:101D800020526564203733302C204F72616E6765B6
:101D9000203538382C20426C7565203437350D0AD3
:101DA000000044696666313D20252E34660D0A0028
:101DB0000D0A416E616C797A696E6720696E69748B
:101DC00069616C206361727472696467652E2E2E7E
:101DD0000D0A54696D652873292C205265642037DB
:101DE00033302C204F72616E6765203538382C20D7
:101DF000426C7565203437350D0A0000446966660B
:101E0000323D20252E34660D0A000D0A416E616CAC
:101E1000797A696E672066696E616C20636172749D
:101E200072696467652E2E2E0D0A54696D652873DC
:101E3000292C20526564203733302C204F72616E7C
:101E40006765203538382C20426C7565203437356D
:101E50000D0A000044696666333D20252E34660D68
:101E60000A000D4144313D252E34662C2041443278
:101E70003D252E34662C2041445F46696E616C3DE1
:101E8000252E34660D0A0000436F6E6331203D201D
:101E900028414432202D20302E303329202F20306D
:101EA0002E3032203D20252E3466203D3E20436FCB
:101EB0006E63656E74726174696F6E3D20252E3499
:101EC000660D0A00436F6E6332203D202841443284
:101ED000202D20302E303529202F20302E3032205A
:101EE0003D20252E3466203D3E20436F6E63656E97
:101EF00074726174696F6E3D20252E34660D0A0080
:101F0000436F6E6333203D2028414432202D203022
:101F10002E303929202F20302E3032203D20252E02
:101F20003466203D3E20436F6E63656E747261744B
:101F3000696F6E3D20252E34660D0A00436F6E6377
:101F4000203D2028414432202D20252E3466292092
:101F50002F20252E3466203D20252E3466203D3E40
:101F600020436F6E63656E74726174696F6E3D209D
:101F700025660D0A00000D0A2A2A2A2A20436865D0
:101F8000636B20666F722063617274726964676547
:101F9000202A2A2A2A0D0A004B65746F6E6520726A
:101FA000656164696E67206572726F722C2072655C
:101FB000706C616365206361747269646765206138
:101FC0006E64207265746573742E0D0A0000467588
:101FD0006C6C546573742066696E697368656420FF
:101FE0007375636365737366756C6C792E0D0A0087
:101FF00043616C6962726174696F6E2066696E69B3
:1020000073686564207375636365737366756C6C60
:10201000792E0D0A00004272656174682074657340
:102020007420737461727465640D0A00496E69747A
:1020300069616C204C696768742D436F6E646974C4
:10204000696F6E733A004272696768746E65737384
:10205000206C6576656C733A0D0A3733306E6D2CE3
:10206000203538386E6D2C203437356E6D0D257562
:102070002C2025752C2025750D0A00002A2A2A2AD5
:102080002A204C4544206272696768746E657373D8
:102090002073657474696E67206661696C6564207D
:1020A0002A2A2A2A2A0D0A004B65746F6E652000C1
:1020B000416D6D6F6E696120000043616C696272F1
:1020C0006174696F6E2000002E2E2E2E5374617283
:1020D0007420627265617468696E6720696E746FDE
:1020E00020746865206D6F7574682070696563651C
:1020F0002E2E2E0D0A0042726561746820766F6C78
:10210000756D652073657474696E677320256C75D1
:102110000D0A00002A2A2A2A2A20496E737566664B
:10212000696369656E742062726561746820766F98
:102130006C756D65202A2A2A2A2A0D0A0000496E2C
:10214000736572742063617472696467652077696E
:102150007468206B6E6F776E206761732073616D9A
:10216000706C657320666F722063616C6962726166
:1021700074696F6E20696E746F20756E6974207754
:1021800068656E20646F6E650D0A0000256420731B
:1021900065636F6E647320746F206B65746F6E651A
:1021A00020616E616C797369730D0A00557064610A
:1021B00074652074686520424C4520696E666F0D19
:1021C0000A00424C4520696E666F20757064617428
:1021D00065640D0A00002A2A2A2A506C656173651D
:1021E0002072656D6F7665732063617274726964C5
:1021F00067652A2A2A2A0D0A00000D0A42726561C3
:10220000746820766F6C756D65206D7573742062CF
:1022100065206265747765656E203330302D31300E
:102220003030206D6C0D0A000D0A424C45204944A7
:10223000203A20307800424C45200000424D4500B5
:10224000424D450042617474657279204C65766533
:102250006C203D20256C75252500454550524F4D7D
:102260002000536C6F70653A20252E33660D0A00EE
:10227000496E746572636570743A20252E33660D5D
:102280000A00566F6C756D652053657474696E67CE
:1022900073203A20256C75206D6C200D0A0D0A0004
:1022A000496E766F7920352E302056657273696FCE
:1022B0006E204D616A6F722025642E204D696E6F0D
:1022C000722025642E205265766973696F6E202511
:1022D000640D0A0D0A000D0A2A2A2A2A4465766925
:1022E000636520696E6163746976697479206465D9
:1022F0007465637465642A2A2A2A2A0D0A002A2A28
:102300002A2A256C75207365636F6E6428732920F3
:10231000746F20706F776572646F776E2A2A2A2A2D
:102320000D0A0D0A00000D0A2A2A2A2A457863653B
:10233000656420696E616374697669747920746973
:102340006D65206C696D69742C20656E74657269A9
:102350006E6720736C656570206D6F64652A2A2A2C
:102360002A0D0A0D0A004B65746F6E652074657343
:102370007420737461727465640D0A00416D6D6F31
:102380006E6961207465737420737461727465641E
:102390000D0A00005265736574696E67207265618D
:1023A00064696E67730D0A004669726D77617265C4
:1023B0002075706461746520737461727465640D56
:1023C0000A000D0A2A2A2A2A536C656570204D6F6F
:1023D00064652A2A2A2A0D0A0000200D0A0D0A2007
:1023E00020547970652074686520666F6C6C6F7717
:1023F000696E6720636F6D6D616E64200D0A000069
:102400002D2D2D2D2D2D2D2D2D2D2D2D2D2D2D2DFC
:102410002D2D2D2D2D2D2D2D2D2D2D2D2D2D0D0A2F
:102420000D0A000020206272696768743733303DFE
:1024300020202D2073657420746865206C656420ED
:10244000373330206272696768746E657373200D6C
:102450000A0020206272696768743538383D202090
:102460002D2073657420746865206C656420353890
:1024700038206272696768746E657373200D0A0094
:1024800020206272696768743437353D20202D2022
:1024900073657420746865206C656420343735205A
:1024A0006272696768746E657373200D0A0020207C
:1024B0006274202020202020202020202D206765ED
:1024C0007420746865206C65642062726967687442
:1024D0006E6573732076616C756573200D0A00005C
:1024E000202063616C6962726174652020202D2058
:1024F00063616C6962726174652074686520756ED1
:102500006974200D0A0020206374202020202020E0
:10251000202020202D20636865636B20746865206F
:1025200063617274726964676520636F6E64697455
:10253000696F6E200D0A0000202066742020202084
:102540002020202020202D20706572666F726D2063
:102550006B65746F6E652074657374200D0A0000DE
:1025600020206964656E74696679202020202D2002
:102570006964656E7469667920756E6974200D0AE8
:1025800000002020626C652E726573657420202027
:102590002D20726573657420626C7565746F6F743D
:1025A00068200D0A00002020696E746572636570F2
:1025B000743D20202D207365742074686520696E39
:1025C000746572636570742076616C7565200D0AA0
:1025D00000002020696E746572636570742020208D
:1025E0002D206765742074686520696E7465726358
:1025F0006570742076616C7565200D0A00002020DE
:10260000706C617920202020202020202D206368FC
:1026100065636B2074686520736F756E64200D0AA6
:102620000000202072702020202020202020202048
:102630002D207072696E7420616C6C2073617665F8
:10264000207465737420726573756C7473200D0A41
:102650000000202072722020202020202020202016
:102660002D20636C65617220616C6C2073617665EE
:10267000207465737420726573756C7473200D0A11
:1026800000002020727320202020202020202020E5
:102690002D206175746F2067656E657261746520A9
:1026A0003130207465737420726573756C74732097
:1026B000666F722074657374696E672070757270CE
:1026C0006F736520200D0A00202073627620202081
:1026D0002020202020202D20736574206E65772017
:1026E00062726561746820766F6C756D65200D0A85
:1026F0000000202073656C667465737420202020B0
:102700002D20706572666F726D20612073656C6636
:102710002074657374200D0A0000202073657269AF
:10272000616C3D20202020202D207365742074686A
:102730006520756E69742073657269616C206E75B1
:102740006D626572200D0A00202073657269616CEC
:102750002020202020202D206765742074686520AB
:10276000756E69742073657269616C206E756D6237
:102770006572200D0A0020207365746C656420204A
:10278000202020202D2073657420746865206C65DE
:1027900064206272696768746E6573732061757412
:1027A0006F6D61746963616C6C79200D0A00202083
:1027B000736C6F70653D2020202020202D207365D4
:1027C000742074686520736C6F70652076616C7519
:1027D00065200D0A00002020736C6F70652020209A
:1027E000202020202D206765742074686520736C7C
:1027F0006F70652076616C7565200D0A00002020E1
:1028000074696D653D202020202020202D207365D7
:1028100074207468652074696D6520616E6420643D
:10282000617465200D0A00002020766F6C7465735A
:102830007420202020202D20636F6D70757465201A
:1028400062726561746820766F6C756D65200D0A23
:102850000000566F796167657220342E3020507207
:102860006F746F747970652C5225642E25642E2543
:10287000642C0000424C452052652D4163746976FA
:10288000617465640D0A00000D0A52657365742059
:1028900062726561746820766F6C756D65206E6517
:1028A000772076616C7565203A20256C64200D0ACE
:1028B00000000D0A42726561746820766F6C756D58
:1028C000652073657474696E67733A20256C6420A3
:1028D0000D0A00000D0A53657269616C2025752090
:1028E0006F6620363A20000053657269616C3A20A9
:1028F0000000496E746572636570743A20252E334A
:10290000660D0A00536C6F70653A20252E33660DF4
:102910000A004479616E616D696320576869746566
:102920002042616C616E636520456E61626C656416
:102930003A2025640D0A00005265736574696E675C
:102940002072656164696E67730D0A004A696E677B
:102950006C652062656C6C730D0A00004C45442068
:10296000343735206F6E0D0A00004C454420353851
:1029700038206F6E0D0A00004C454420373330205C
:102980006F6E0D0A00004C4544206F66660D0A000C
:1029900052656164696E673A20256C750D0A000006
:1029A00052656164696E67202831302D6176672930
:1029B0003A20252E34660D0A00004578656375744B
:1029C000696E672063616C6962726174696F6E2EF3
:1029D0002E2E0D0A00002A2A2A2A2A2A20204B6598
:1029E000746F6E6520446574656374696F6E2054FE
:1029F000657374206661696C656420202A2A2A2A1E
:102A00002A2A0D0A00004475726174696F6E3A20BB
:102A100000000D0A6272696768743733303A20002B
:102A20000D0A6272696768743538383A20000D0AF9
:102A30006272696768743437353A20000D0A696E2E
:102A40006465782C204C45443733302C204C454469
:102A50003538382C204C45443437350D0A000D0AE2
:102A6000536574204C4544206272696768746E65D2
:102A7000737320696E6465780D0A00002A2A2A2A79
:102A80002A2A2A2A2A2A2A2A2A2A2A2A2A2A2A2AA6
:102A90002A2A2A2A2A2A2A2A0D0A00002A2A2A2A27
:102AA0002A204175746F206272696768746E65735D
:102AB000732073657474696E6720666F72204C456D
:102AC000443733302C204C45443538382C204C4585
:102AD00044343735206661696C6564202A2A2A2AC5
:102AE0002A0D0A00948694882FEF69F0200E0801C1
:102AF00013A9300E146F12C800F000AE08D0001EEB
:102B0000002A00C012F82D0E146F138F138101508C
:102B1000196AF2BE198EF29E12C86CF9640E090190
:102B20006D6F000179EC04F019BEF28E00C012F84E
:102B3000300E01240801156F196AF2BE198EF29E3B
:102B400012C86CF90A0E09016D6F000179EC04F0EE
:102B500019BEF28E300E00240801176F300E0124CA
:102B6000166F14C800F0300E155D04E0138313BF18
:102B7000138512D014C815F8200E146F300E165D90
:102B800004E0138113BF138307D0D8A4138104E199
:102B900015C816F8200E156F13B505D013B307D05E
:102BA00013B109D00CD01451A4A8FED7736E1551DF
:102BB000A4A8FED7736E1651A4A8FED7736E175142
:102BC000A4A8FED7736E00011200C050C00B070905
:102BD000C06EC08EC280C150F00BC16E000E0F01DE
:102BE000386F3C6F396F3A6F040E3B6F580E016EB1
:102BF000C250830B0110C26E0001E4EF23F0C69CAB
:102C0000C586C5B6FED700B0C59A00A0C58AC588DE
:102C1000C5B8FED7C9CF01F01200C580C5B0FED738
:102C2000196AF2BE198EF29EA00E09017A6F000198
:102C3000E8EC04F019BEF28E5FC761F70701626B22
:102C4000196AF2BE198EF29E5FC77AF90001E8ECAC
:102C500004F019BEF28E196AF2BE198EF29E5EC79A
:102C60007AF9E8EC04F019BEF28EC582C5B2FED73F
:102C7000196AF2BE198EF29EA10E09017A6F000147
:102C8000E8EC04F019BEF28E006AB9DF01C060F70B
:102C90000701C584C5B4FED760C701F0000112006A
:102CA0000900F5520DE0F6CF12F8F7CF13F8F55002
:102CB000A4A8FED7736E12C8F6FF13C8F7FFF0D7AB
:102CC000120007014CBF10D00F0E006E4B390016DA
:102CD0000A0E005C03E2300E002602D04C510026A2
:102CE0000050A4A8FED7736E0F0E4B170A0E4B5D53
:102CF00002E2300E02D04C9F4C514B274B51A4A8FE
:102D0000FED7736E00011200EF5210E0EACF53F7C6
:102D1000E9CF52F7EF50A4A8FED7736E53C7EAFF6E
:102D200052C7E9FFE92AD8B4EA2AEED71200080E02
:102D3000EA6E180EE96EEF500DE0020E016E006AA9
:102D4000002EFED7012EFBD7970E006E002EFED769
:102D5000EF2EF3D712000801136B03014951485DB0
:102D60000BE2010E0801136F0301482B4951485D26
:102D700002E1486B496BF2D7080113C801F000016A
:102D80001200040EEBEC03F0000EEBEC03F0000E6F
:102D9000EBEC03F0000EEBEC03F0010EEBEC03F0B8
:102DA00020EF18F0040EEBEC03F0000EEBEC03F058
:102DB000000EEBEC03F0000EEBEC03F0020EEBEC7C
:102DC00003F039EF18F00701526B516B070E546F87
:102DD000510E536F53C701F054C756F701C055F752
:102DE0005F6B1E0E5E6F000118DF56C7EAFF55C706
:102DF000E9FF01C0EFFF010E07015325016E000E30
:102E00005421036E01C055F7566F5F6B1F0E5E6F46
:102E1000000103DF56C7EAFF55C7E9FF01C0EFFF16
:102E2000070151C701F052C702F000011200080E5D
:102E300008011625196F19510001EBEC03F0000E83
:102E4000EBEC03F0040E08011625196F195100016F
:102E5000EBEC03F0020EEBEC03F0000EEBEC03F0F6
:102E600008011351196F1A6B19510001EBEC03F0B3
:102E700014C813F80801146B1351196F1A6B195108
:102E80000001EBEC03F0080115510001EBEC03F03D
:102E9000080116510001EBEC03F00801165116076A
:102EA000000A11E018C803F01751E96E03C0EAFFE9
:102EB000EFCF19F819510001EBEC03F00801172BC3
:102EC000D8B4182BEBD7000112000701546B536BD9
:102ED000070E566F530E556F55C701F056C758F77A
:102EE00001C057F75F6B200E5E6F000196DE58C77A
:102EF000EAFF57C7E9FF01C0EFFF010E07015525A3
:102F0000016E000E5621036E01C057F7586F5F6BBC
:102F1000210E5E6F000181DE58C7EAFF57C7E9FF47
:102F200001C0EFFF070153C701F054C702F00001D1
:102F300012000701276B2751050819E327512525A2
:102F4000016E000E2621036E01C028F7296F140EB2
:102F500027252A6F5F6B5E6F00015FDE29C7EAFFDE
:102F600028C7E9FF01C0EFFF0701272BE4D70001C5
:102F7000120007011B6B010E1A6F6C0EF66E180E15
:102F8000F76E196AF2BE198EF29E0E0E0901666F77
:102F9000000156EC05F019BEF28E100EE96E196AAA
:102FA000F2BE198EF29E1BC767F91AC766F96BEC61
:102FB00005F019BEF28E7D0EF66E180EF76E196AC8
:102FC000F2BE198EF29E0D0E0901666F000156ECDD
:102FD00005F019BEF28E93948A94020E0701256FB4
:102FE000FA0E0801186F0001A2DE0701252FF8D79D
:102FF00093948A84050E256FDC0E0801186F00017A
:1030000096DE0701252FF8D71C6B1CBF03D01C517F
:1030100063080AE300019FDE015203E0070104D0C8
:10302000000107011C2BF1D71CBF03D01C51630802
:1030300001E304D01A2BD8B41B2B9FD70001A1D6D3
:103040008ADE0152FDE0196AF2BE198EF29E020E6E
:103050000901666F676F0001EFEC03F019BEF28E95
:103060007ADE0152FDE007011D6B3C0E1E6F000170
:1030700099D671DE0152FDE0A6DE01C01DF7080100
:10308000146B250E136F156B020E166F070E186F5B
:103090001D0E176F0001CBDE5EDE0152FDE015DF75
:1030A00001C01DF70801146B290E136F156B020E7A
:1030B000166F070E186F1D0E176F0001B8DE4BDE7E
:1030C0000152FDE0070E0701266F1F0E256F00015C
:1030D00030DF0801146B110E136F156B060E166F9F
:1030E000070E186F1F0E176F0001A1DE34DE0152AC
:1030F000FDE00801146B340E136F156B020E166F92
:10310000070E186F1E0E176F000191DE24DE0152AC
:10311000FDE0020E0701266F2A0E256F0801146BD1
:10312000150E136F156B100E166F26C718F825C7EE
:1031300017F800017CDE0FDE0152FDE012000401F1
:10314000C581050EEA6E010EE96E020E036E6C0E6D
:10315000EF6E03C0ECFF040EEA6EE968330E036EF7
:10316000C60EEF6E03C0ECFF050EEA6E030EE96EAD
:10317000EC6AED52EF6A000164EF24F007015F533F
:1031800002E160531EE03C0E5F25E96E000E6021F7
:10319000EA6EECCF62F7ED52EFCF61F7615302E1D7
:1031A00062530FE03E0E5F25E96E000E6021EA6E6D
:1031B000ECCF62F7ED52EFCF61F7615305E1625357
:1031C00003E1800E016E02D0000E016E00011200BC
:1031D00095988C98C580C5B0FED7196AF2BE198E35
:1031E000F29EEC0E09017A6F0001E8EC04F019BEC2
:1031F000F28E196AF2BE198EF29E18C87AF9E8ECBE
:1032000004F019BEF28E196AF2BE198EF29E19C828
:103210007AF9E8EC04F019BEF28EC584C5B4FED785
:10322000120008011C6B95988C98C580C5B0FED71C
:10323000196AF2BE198EF29EEC0E09017A6F000136
:10324000E8EC04F019BEF28E196AF2BE198EF29EF5
:103250001BC87AF9E8EC04F019BEF28EC582C5B23B
:10326000FED7196AF2BE198EF29EED0E09017A6F31
:103270000001E8EC04F019BEF28E006AC0DC01C067
:103280001CF8C584C5B4FED708011CC801F00001B4
:103290001200730E08011B6F0001C3DF01C01AF892
:1032A00008011A5303E11A51100804E0020E016EDE
:1032B0000BD00AD0030E1825E96E000E1921EA6E14
:1032C0001AC8EFFF000E016E000112000801156B15
:1032D0001251600809E01251500806E01251E0084E
:1032E00003E01251D00802E1166B02D0020E166FF5
:1032F000730E186F16C819F800016ADF640E080112
:10330000186F000114DD14C819F813C818F8C1DFCC
:1033100001C017F808011651175D03E0020E156F82
:1033200008D0030E1325E96E000E1421EA6E16C8AC
:10333000EFFF15C801F0000112000701206BB60E67
:10334000236F020E1E25016E000E1F21036E01C0A9
:10335000E9FFEA6EEFA003D0E00E226F0DD0600E01
:10336000226F22C712F81FC714F81EC713F80001F6
:10337000ADDF01C020F70701205303E0100E016EFE
:103380001FD022C718F823C719F8000121DF140E37
:103390000801186F0001CBDC730E08011B6F0001E0
:1033A00040DF01C021F7100E07012117030E1E2573
:1033B000E96E000E1F21EA6E21C7EFFF20C701F062
:1033C0000001A9EF1CF00701676B6451651103E16F
:1033D000080E016E1FD061C766F765C703F0645120
:1033E000D8B465076407031013E066C71BF8000133
:1033F00018DF01C068F7070163C703F06251622B51
:10340000D8B4632BE96E03C0EAFF68C7EFFFE5D7C6
:1034100067C701F0000144EF1AF05DC760F75CC7B1
:103420005FF7ACDE01C05EF707015E5335E1020EC7
:103430005C25016E000E5D21036E01C0E9FFEA6E9E
:10344000EFB00ED057C712F85DC714F85CC713F879
:1034500000013CDF01C05EF707015E5301E1578FB9
:10346000010E5C25E96E000E5D21EA6EEFCF60F77C
:1034700057C761F759C763F758C762F75BC765F766
:103480005AC764F700019FD701C05EF707015E537A
:1034900003E0020E016E02D05EC701F000011200CF
:1034A00007015B515C19800B5E6F5BAF02D05B1F45
:1034B0005B2B5CAF02D05C1F5C2B5C51016A5B5DD7
:1034C00003E25BC700F00CD0006A080E5D6F5B374B
:1034D00000365C51005CD8B0006E01365D2FF7D726
:1034E0005EAF02D0011E012A00017BEF1CF0070134
:1034F000546B566B020E1E25016E000E1F21036ECB
:1035000001C0E9FFEA6EEFB026D0730E08011B6F11
:10351000000187DE01C055F70701553B0F0E551717
:10352000010E5517555317E0730E0801186F196BEC
:1035300000014EDE730E08011B6F000172DE01C038
:1035400055F70701555307E1030E1E25E96E000EDE
:103550001F21EA6EEF6A5453D8A4D0D1EA0E0801B5
:103560001B6F00015EDE01C021F70701206B226B9B
:10357000236BE90E08011B6F000153DE01500701A8
:103580002013120E1E25E96E000E1F21EA6E20C7C1
:10359000EFFF21C7ECFF8B0E08011B6F000141DE1E
:1035A00001C025F70701246B266B276B8A0E0801E3
:1035B0001B6F000136DE015007012413140E1E2577
:1035C000E96E000E1F21EA6E25C7ECFFED5224C7FD
:1035D000EFFF8C0E08011B6F000123DE07012B6B30
:1035E0002A6B296B01C028F7160E1E25E96E000E06
:1035F0001F21EA6E28C7EFFF8F0E08011B6F000125
:1036000010DE01C02DF707012C6B2E6B2F6B8E0E79
:1036100008011B6F000105DE015007012C13170E76
:103620001E25E96E000E1F21EA6E2CC7EFFF2DC785
:10363000ECFF910E08011B6F0001F3DD01C031F7B3
:103640000701306B326B336B900E08011B6F00016A
:10365000E8DD015007013013FF0E32133313190E4A
:103660001E25E96E000E1F21EA6E31C7ECFFED52F8
:1036700030C7EFFF920E08011B6F0001D2DD01C0C1
:1036800048F7016A026A036A03C04BF702C04AF7AF
:1036900001C049F71B0E07011E25E96E000E1F2110
:1036A000EA6E48C7EFFF950E08011B6F0001B9DDF8
:1036B00001C035F70701346B366B376B940E080188
:1036C0001B6F0001AEDD0150070134131C0E1E25D7
:1036D000E96E000E1F21EA6E35C7ECFFED5234C7CC
:1036E000EFFF970E08011B6F00019BDD01C041F742
:1036F0000701406B426B436B960E08011B6F000184
:1037000090DD015007014013FF0E421343131E0EBC
:103710001E25E96E000E1F21EA6E41C7ECFFED5237
:1037200040C7EFFF990E08011B6F00017ADD01C051
:103730004CF7016A026A036A03C04FF702C04EF7F2
:1037400001C04DF7200E07011E25E96E000E1F2156
:10375000EA6E4CC7EFFF980E08011B6F000161DD98
:1037600001C050F7016A026A036A03C053F702C03E
:1037700052F701C051F7210E07011E25E96E000E18
:103780001F21EA6E50C7EFFF9D0E08011B6F00015D
:1037900048DD01C039F70701386B3A6B3B6B9C0E73
:1037A00008011B6F00013DDD015007013813FF0EBA
:1037B0003A133B13220E1E25E96E000E1F21EA6EFE
:1037C00039C7ECFFED5238C7EFFF9F0E08011B6FA2
:1037D000000127DD01C03DF707013C6B3E6B3F6BED
:1037E0009E0E08011B6F00011CDD015007013C13F8
:1037F000FF0E3E133F13240E1E25E96E000E1F21FF
:10380000EA6E3DC7ECFFED523CC7EFFFA00E08018A
:103810001B6F000106DD0701476B466B456B01C05E
:1038200044F7FF0E46134713260E1E25E96E000EC1
:103830001F21EA6E44C7EFFF54534FE1020E576F4A
:10384000070E596F560E586F5B6B010E5A6F1FC7EC
:103850005DF71EC75CF70001E0DD01C054F72B0ED9
:1038600007011E25E96E000E1F21EA6E5651300B2E
:10387000006E003A0F0E001600C0EFFF54532DE10A
:10388000576B070E596F560E586F5B6B010E5A6FD0
:103890001FC75DF71EC75CF70001BFDD01C054F70D
:1038A0002C0E07011E25E96E000E1F21EA6E56C779
:1038B000EFFF545312E1040E576F070E596F560E67
:1038C000586F5B6B010E5A6F1FC75DF71EC75CF721
:1038D0000001A3DD01C054F707012D0E1E25E96E7E
:1038E000000E1F21EA6E5651F00B5A6F5B6F100EDF
:1038F0005C6F0001D5D501C0EFFF070154C701F08F
:103900000001DAEF1CF007011C6B020E1A25016E94
:10391000000E1B21036E01C0E9FFEA6EEFA003D089
:10392000D00E1D6F02D0500E1D6F1BC760F71AC757
:103930005FF7000123DC01C01CF707011C5303E003
:10394000800E016E48D01BC71FF71AC71EF7000173
:10395000F4D401C01CF707011C530BE0AE0EF66E49
:103960001B0EF76E000150EC16F0100E016E0701F1
:1039700032D01AC701F01BC71FF701C01EF71DC7C1
:103980001BF800014EDC1FC7EAFF1EC7E9FF01C09C
:10399000EFFF07011AC7E9FF1BC7EAFFEF506108F5
:1039A00003E0100E016E17D01BC71FF71AC71EF7D2
:1039B00000019DD501C01CF707011C530AE0C80E89
:1039C000F66E1B0EF76E000150EC16F0040E0701A8
:1039D0001C6F1CC701F000016CEF24F00150196A44
:1039E000F2BE198EF29E13C86CF9640E09016D6F58
:1039F000000179EC04F019BEF28E00C013F80150FA
:103A0000300E08E1080114A30ED014B70CD014B97D
:103A1000200E04D008011497149914810126015036
:103A2000A4A8FED7736E196AF2BE198EF29E13C84F
:103A30006CF90A0E09016D6F000179EC04F019BEF2
:103A4000F28E00C013F80150300E08E1080114B7DF
:103A50000BD014A109D014B9200E00010126015089
:103A6000A4A8FED7736E0801300E13271351A4A823
:103A7000FED7736E0001120012C850F303015151BA
:103A8000505D3CE08C0EF66E180EF76E196AF2BEB1
:103A9000198EF29E0A0E0901666F000156EC05F0C0
:103AA00019BEF28E12C813F81B0E0801146F000124
:103AB00095DF980EF66E180EF76E196AF2BE198E23
:103AC000F29E060E0901666F000156EC05F019BE64
:103AD000F28E50C351F30801146B3F0E136F156B38
:103AE000020E166F030E186F500E176F000117ECC1
:103AF00017F0ABEC16F00152FCE0030100011200DC
:103B0000070E07015A6F550E596F5B6B5BBF03D0F1
:103B10005B51030821E3036A5B51006EE8BE0306B4
:103B20005925016E5A51032201C05CF703C05DF7AD
:103B300054C75FF753C75EF700010DEC16F05DC781
:103B4000EAFF5CC7E9FF01C0EFFF07015B515B2B98
:103B5000532BD8B4542BDAD755C700F056C701F011
:103B600057C702F058C703F0000112008E0E006E16
:103B700008011251005E13C802F014C801F0028E51
:103B8000005209E0D890025202E1015204E00232F0
:103B90000132002EF7D713AF05D0011E021E012AF5
:103BA000D8B4022A0001120007011C6B1B51010846
:103BB00004E30BE11A512B0808E21B51060810E23E
:103BC000FF0A03E11A51D0080BE2FA0EF66E210E3D
:103BD000F76E000150EC16F007011CC701F03ED053
:103BE000196AF2BE198EF29E1BC767F91AC766F9E9
:103BF0000001CDEC04F019BEF28E03C020F702C024
:103C00001FF701C01EF700C01DF7196AF2BE198E1A
:103C1000F29E09016B6B1A0E6A6F03C06FF902C046
:103C20006EF901C06DF900C06CF9000130EC05F0CF
:103C300019BEF28E0701546B1A0E536F000160DF3C
:103C400003C015F802C014F801C013F800C012F840
:103C50008DDF02C004F201C003F20701000112006F
:103C6000EACF53F7E9CF52F707014CAF08D0528F94
:103C700052A9522B4B1F4C1F4B2BD8B44C2B4C39F9
:103C8000F0094E6F4E27E20F4F6F320F516F4C51BC
:103C90000F0B4F274F275127E90F506F5027502701
:103CA0004B390F0B5027512750375137511F513780
:103CB0004B510F0B51274E37070E4D6F0A0E500711
:103CC0005127FDE34F075027FDE34E074F27FDE344
:103CD0004D074E27FDE3070EEA6E4D0EE96E070E07
:103CE0005215529DED52521507E152B9EE5252B99A
:103CF00003D0200E006E21D0E926000EEA22E95002
:103D0000510804E1EA50070801E1528DEF50006EBE
:103D100008E152BD06D052B914D052B702D0200EDD
:103D20000BD052AF06D02D0E006EED50529D529F1B
:103D300004D052875299300E00260050A4A8FED716
:103D4000736EEE5052ADDBD700011200C282C2B2D8
:103D5000FED7C4CF66F40401C3CF65F46551BD5DE1
:103D600003E16651BE5D3BE0E20EF66E1B0EF76EA0
:103D7000196AF2BE198EF29E120E0901666F0001D9
:103D800056EC05F019BEF28E100EE96E66C44CF7C3
:103D900065C44BF765DF010EEA6EA70EE96E84EC91
:103DA00016F066C4BEF465C4BDF40401636B616BB8
:103DB00066BF07D06651020812E303E16551FE08B1
:103DC0000EE3010E616F626B66BF07D0665101089A
:103DD00006E303E16551F30802E3010E636F958E7C
:103DE000646B83BE642B0001120007015151530321
:103DF000F3CF01F0F4CF00F05403F35000265251FA
:103E00005303F3500020026E0001120007011D6BE6
:103E1000958E0401646B83BE642B645305E166C414
:103E2000C0F465C4BFF417D068C452F767C451F733
:103E30000701546B64C453F70001D7DF02C003F0DD
:103E400001500401655D07011B6F025004016659B2
:103E500007011C6F0401140E07011A6F1A5327E0A3
:103E6000D8901A35036A930FE96E040E0320EA6EA8
:103E7000ECCF03F0ED52EFCF01F01CBF16D0035092
:103E80001C5D13E303E101501B5D0FE3010E1A25D6
:103E9000006ED89000360050036A690FE96E040E78
:103EA0000320EA6EEFCF1DF702D01A07D7D71DC740
:103EB00001F00001120013C81AF8080117511A1B6B
:103EC0001AAF05D0D894D89013BFD8802FD013C87C
:103ED0001AF816C81BF812511B5F06E01AAF26D05D
:103EE000D850010AD86E22D017C81BF813511B5F97
:103EF00006E01AAF1BD0D850010AD86E17D018C8E8
:103F00001BF814511B5F06E01AAF10D0D850010AFD
:103F1000D86E0CD019C81BF815511B5F06E01AAFFC
:103F200005D0D850010AD86E01D0D89000011200F7
:103F300008013251D8B471D0006E3651D8B46DD06A
:103F4000002604E3810E002668E204D07F0E005EA6
:103F500064E363E033C83AF837513A1B338F378F45
:103F600035513903F4CF3CF834513803F4CF03F022
:103F7000F3CF3BF83903F3503C27F4503B23000EBA
:103F8000032235513803F3503C27F4503B23000EF5
:103F9000026A0322022233513903F3503B27F450C3
:103FA0000322000E022233513803F3500326F4504B
:103FB0000222000E016A012235513703F3503B27DC
:103FC000F4500322000E0222012234513703F35031
:103FD0000326F4500222000E012233513703F3501E
:103FE0000226F4500122002A01BE05D03B370336D9
:103FF000023601360006000E3BAF0AD0032A022229
:104000000122015005E1025003E1035001E1002AC1
:104010003ABF018E3AAF019E04D0006A016A026A7B
:10402000036A0001120008011F51B6081F6F036ADE
:1040300020C823F8208FD890203321332233033235
:104040000232013200321F2FF6D723AF0BD0001EF1
:10405000011E021E031E002AD8B4012AD8B4022A67
:10406000D8B4032A0001AAEF20F0D8B204D0080E79
:10407000EA6E270EE96E006A016A026A036A0801A5
:10408000276B286B296B2A6B2651251124112311CC
:104090002CE0200E2B6FD8901F3720372137223786
:1040A0002737283729372A3726512A5D08E1255135
:1040B000295D05E12451285D02E12351275D0FE3CD
:1040C0002351275F2451D8A0243D285F2551D8A033
:1040D000253D295F2651D8A0263D2A5FD88000368D
:1040E0000136023603362B2FD6D727C8EFFF28C854
:1040F000ECFF29C8ECFF2AC8ECFF00011200E950D0
:104100000801176F1651196F1BE015C835F814C850
:1041100034F813C833F812C832F8396B386B200EF4
:10412000376F820E366F000103DF03C015F802C03F
:1041300014F801C013F800C012F80801192FE5D7D0
:1041400015C822F814C821F813C820F812C81FF89F
:10415000000169D703C015F802C014F801C013F8B4
:1041600000C012F8080115AF0DD01707178B121FEA
:10417000131F141F151F122BD8B4132BD8B4142BD4
:10418000D8B4152B3B0E1E6F9A0E1D6FCA0E1C6FF6
:104190001B6B0A0E196F1651D8B4172BD882080E54
:1041A000EA6E120EE96E15C822F814C821F813C879
:1041B00020F812C81FF81EC826F81DC825F81CC80C
:1041C00024F81BC823F8000150DF0150005213E10E
:1041D00008011629195DD8A402D000010CD017518E
:1041E0000DE00F0B195D01E03CE217BF3AD017BD9F
:1041F00005D0200E31D0200E0801171717AB0DD0B7
:10420000179B1651D8A417070050176F2D0EA4A89E
:10421000FED7736E1751006E176B1651195D0BE1C7
:104220000050176F2E0EA4A8FED7736E1751006EA4
:10423000200E1717000E300E17AB0ED0179B16511D
:10424000D8A417070050176F2D0EA4A8FED7736EC1
:104250001751006E176B300E00260050A4A8FED731
:10426000736ED8921EC822F81DC821F81CC820F809
:104270001BC81FF8266B256B246B0A0E236F0001E9
:10428000F4DE03C01EF802C01DF801C01CF800C017
:104290001BF80801192F82D70001120053C75FF7DE
:1042A00052C75EF70DEC16F00150120008011B51C9
:1042B000200807E01C6F1737183719371A371C2FDB
:1042C000FAD7006A959895908C9095968C961BC815
:1042D0001CF81AAF8C981ABF8C8817371837193703
:1042E0001A378C808C901C2FF4D78C860001A1EF9C
:1042F00021F008011B6B1A6B196B12C818F812AF6A
:1043000003D019071A071B071AC803F019C802F0CF
:1043100018C814F8006A300E0226000E032203C0EB
:1043200016F802C015F800C013F816C81AF815C818
:1043300019F814C818F813C817F8180E1B6F0001E5
:10434000B5D712009298899894908B90929A899AF6
:10435000120008011451070B006E1431016E013276
:1043600001321F0E011601501625E96E000E1721AD
:10437000EA6E016A012A002A01D00136002EFDD71B
:10438000155303E00150EF1203D0011E0150EF1648
:1043900000011200D7DF12C814F8010E0801156FD2
:1043A0000F0E176F890E166F0001D3DF12C814F8B5
:1043B0000801156B0F0E176F920E166F0001C9DF03
:1043C000120056C001F0CE50CFCF03F09D90026E88
:1043D0005650015C04E0CE50CFCF03F001D0025024
:1043E00003C000F056C001F057C002F058C003F0FF
:1043F00059509D80120007015C6B5B6B5A6B596BC7
:10440000606B5F6B5E6B5D6B646B636B626B616B50
:104410000001D7DF03C060F702C05FF701C05EF79D
:1044200000C05DF7CEDF03C05CF702C05BF701C0E0
:104430005AF700C059F707015D51595D616F5E5130
:104440005A59626F5F515B59636F60515C59646F79
:1044500058AF03D064AF12D002D064BF10D058510F
:10446000645D0DE30BE15751635D09E307E15651CC
:10447000625D05E303E16151555D01E205D0000194
:10448000ABEC16F0CFD7070100011200D8921DC87F
:1044900022F81CC821F81BC820F81AC81FF819C830
:1044A00026F818C825F817C824F816C823F8DDDD43
:1044B000025004E1015002E100501EE102320132DB
:1044C00000320232013200323F0E0216025004E185
:1044D000015002E1005013E1023201320032023297
:1044E000013200323F0E0216025004E1015002E197
:1044F000005008E1006A06D0040EBA6E05D0050E21
:10450000BA6E02D0060EBA6E000600C0BBFF9BEF6B
:1045100022F015C819F814C818F813C817F812C8EB
:1045200016F808011D6B1E0E1C6F840E1B6F800E8B
:104530001A6F0001ABD712000C0E0F0157130801C0
:10454000156B146B010E136FF40E126F0001E1DF97
:10455000FA0E0801186F000197EC16F00801156BB0
:10456000146B020E136F580E126F0001D2DFFA0E99
:104570000801186F000197EC16F00801156B146B19
:10458000010E136FF40E126F0001C3DFFA0E080163
:10459000186F000197EC16F0F00E0F01571700018D
:1045A000120031C700F032C701F033C702F034C740
:1045B00003F0000ED890596E03C058F002C057F0B7
:1045C00001C056F000C0CFFFCE6A1200560EF66E44
:1045D000180EF76E50EC16F093948A94020E0701B1
:1045E000316F960E0801186F000197EC16F0070165
:1045F000312FF7D793948A84020E316F960E0801FB
:10460000186F000197EC16F00701312FF7D793943C
:104610008A94020E316F960E0801186F000197EC14
:1046200016F00701312FF7D7000118EF23F0CED78E
:10463000F80EF66E1B0EF76E50EC16F094928B92FD
:1046400094948B941A0EF66E1C0EF76E50EC16F0C6
:10465000D3CF00F0D39E030000C0D3FF12000701A8
:104660001D6B1C6B1B6B1A6B1E6B0401C151C211BD
:10467000D8B477D05A0E0801126F00013ADE7C0ED2
:104680000801136F050E126F000184DE0701586BDD
:10469000576B566B640E556F0001ADDE929A899A86
:1046A0000701586B576B566B320E556F0001A3DE36
:1046B00043DF640E0801186F000197EC16F081DEED
:1046C00003C01DF702C01CF701C01BF700C01AF79A
:1046D00007011D530AE11C5308E11B51260833E270
:1046E000FF0A03E11A510F082EE21E2B346B336BC5
:1046F000326B316B000155DF340EF66E1C0EF76E17
:10470000196AF2BE198EF29E160E0901666F00013B
:1047100056EC05F019BEF28E100EE96E196AF2BE63
:10472000198EF29EC2C467F9C1C466F96BEC05F03C
:1047300019BEF28E0D0EA4A8FED7736E0A0EA4A8A1
:10474000FED7736E07011E51020809E2500EF66E85
:104750001C0EF76E000150EC16F069DF070185D7DB
:104760000401000179EF26F00301506B5151505DB7
:104770001CE0A00EF66E180EF76E000150EC16F05D
:1047800050C351F30801146B3F0E136F156B020EEB
:10479000166F030E186F500E176F000117EC17F00D
:1047A000ABEC16F00152FCE003010001120007011E
:1047B000026B106B0F6B0E6B0D6B196B0401C26BF0
:1047C000C16B0001E5EF15F002012B6B2A6B2D6B1D
:1047D000410E2C6F2F6B020E2E6F07015F6B1C0EAC
:1047E0005E6F00010DEC16F0036A01C032F20201A7
:1047F00003C033F2280EF66E220EF76E000150EC65
:1048000016F00701016B0151050828E3036A015105
:10481000340F016E020E032203C01BF7036A01511D
:104820004A0FE96E030E0320EA6EEFCF1CF71BC799
:10483000EAFF01C0E9FF1CC7EFFF036A0151340F13
:10484000E96E020E0320EA6EEFCF4BF7370E4C6F86
:10485000000161EC16F00701012BD5D7010EEA6EBD
:10486000A70EE96E000184EC16F0B9EC17F0360ED5
:10487000F66E220EF76E50EC16F0010EEA6E410E47
:10488000E96E84EC16F0010EEA6EB40EE96E84EC6B
:1048900016F0010EEA6EA70EE96E84EC16F0070E14
:1048A00007011B6F190E1A6F0801146B3B0E136F73
:1048B000156B010E166F1BC718F81AC717F8000101
:1048C00017EC17F09FEF18F0040E07011B6FC30ED3
:1048D0001A6F000183EF1CF001C002F707010253B9
:1048E00021E03C0EF66E220EF76E000150EC16F041
:1048F000010EEA6E410EE96E84EC16F0010EEA6ECE
:104900004E0EE96E84EC16F0010EEA6EA70EE96E0B
:1049100084EC16F0010E0801126F00013CEC1DF052
:104920001AD00701400EF66E220EF76E000150EC11
:1049300016F0010EEA6E410EE96E84EC16F0010EDF
:10494000EA6EB40EE96E84EC16F0010EEA6EA70E64
:10495000E96E84EC16F00701546B1A0E536F0001D8
:1049600080EC1DF003C015F802C014F801C013F864
:1049700000C012F8B6EC1DF002C004F701C003F746
:1049800007010451010804E30BE103512B0808E27D
:10499000045106080EE2FF0A03E10351D00809E2C0
:1049A000020E1B6F580E1A6F0001D4EC1DF006D0DA
:1049B000070104C704F203C703F20001A6EC1EF0CE
:1049C00006EC1FF00201316B01C030F2440EF66EAE
:1049D000220EF76E196AF2BE198EF29E100E0901B0
:1049E000666F000156EC05F019BEF28E100EE96EEE
:1049F000196AF2BE198EF29E31C267F930C266F9A9
:104A00006BEC05F019BEF28E250EA4A8FED7736ECE
:104A1000010EEA6EA70EE96E84EC16F00A0E07018D
:104A2000146FD70E136F230E126F790E116F196A60
:104A3000F2BE198EF29E09016B6B0A0E6A6F14C7E3
:104A40006FF913C76EF912C76DF911C76CF9000140
:104A500030EC05F019BEF28EEC0E0701146F510E0A
:104A6000136F380E126F7B0E116F196AF2BE198E1A
:104A7000F29E09016B6B0E0E6A6F14C76FF913C7B4
:104A80006EF912C76DF911C76CF9000130EC05F031
:104A900019BEF28E0701546B0A0E536F000180ECB1
:104AA0001DF003C014F702C013F701C012F700C0D5
:104AB00011F70701546B0E0E536F000180EC1DF0CF
:104AC00003C018F702C017F701C016F700C015F7AA
:104AD00014C715F813C714F812C713F811C712F842
:104AE0000A0E0801196FD70E186F230E176F790E73
:104AF000166F00015BEC1FF015E118C715F817C71A
:104B000014F816C713F815C712F8EC0E0801196F40
:104B1000510E186F380E176F7B0E166F00015BEC8D
:104B20001FF01CE05A0EF66E220EF76E50EC16F0D7
:104B3000010EEA6E410EE96E84EC16F0010EEA6E8B
:104B40004E0EE96E84EC16F0010EEA6EA70EE96EC9
:104B500084EC16F00401C18180D00001620EF66E73
:104B6000220EF76E196AF2BE198EF29E070E090127
:104B7000666F000156EC05F019BEF28E890EE96EE3
:104B800014C715F813C714F812C713F811C712F891
:104B9000030E0801166F00017FEC20F00D0EA4A893
:104BA000FED7736E0A0EA4A8FED7736E700EF66E53
:104BB000220EF76E196AF2BE198EF29E0B0E0901D3
:104BC000666F000156EC05F019BEF28E890EE96E93
:104BD00018C715F817C714F816C713F815C712F831
:104BE000030E0801166F00017FEC20F00D0EA4A843
:104BF000FED7736E0A0EA4A8FED7736E820EF66EF1
:104C0000220EF76E196AF2BE198EF29E120E09017B
:104C1000666F000156EC05F019BEF28E100EE96EBB
:104C2000196AF2BE198EF29E04C267F903C266F9D0
:104C30006BEC05F019BEF28E970EF66E220EF76E33
:104C4000196AF2BE198EF29E080E0901666F000104
:104C500056EC05F019BEF28E04010701536B130EDA
:104C6000526F00014EEC21F001C00AF5010EEA6E10
:104C70007C0EE96E84EC16F005010A51AA081BE0CF
:104C8000010EEA6E030EE96E000184EC16F0010ECF
:104C9000EA6EAF0EE96E84EC16F0010EEA6E0F0EAE
:104CA000E96E84EC16F0010EEA6EA70EE96E84EC54
:104CB00016F014D00501010EEA6E030EE96E000134
:104CC00084EC16F0010EEA6E0F0EE96E84EC16F01D
:104CD000010EEA6EA70EE96E84EC16F00401C151D4
:104CE000C21109E0010E0801126F00013CEC1DF039
:104CF000B6D4A9D00401010EEA6EA70EE96E000138
:104D000084EC16F0010EEA6E540EE96E84EC16F097
:104D1000010EEA6E410EE96E84EC16F0010EEA6EA9
:104D2000B40EE96E84EC16F0010EEA6EF20EE96E36
:104D300084EC16F0E1EC21F003C00CF702C00BF795
:104D400001C00AF700C009F710C734F70FC733F7DF
:104D50000EC732F70DC731F724DC5A0E0801126F67
:104D6000000179EC21F07C0E0801136F050E126F23
:104D70000001CAEC21F00701586B576B566B640EAB
:104D8000556F0001FBEC21F0929A899A0701586B4C
:104D9000576B566B320E556F0001FBEC21F07C0E09
:104DA0000801136F100E126F0001CAEC21F0070109
:104DB000586B576B566B640E556F0001FBEC21F07E
:104DC00094908B900701586B576B566B320E556F52
:104DD0000001FBEC21F07C0E0801136F040E126F32
:104DE0000001CAEC21F00701586B576B566B640E3B
:104DF000556F0001FBEC21F0929889980701586BE0
:104E0000576B010E566FF40E556F0001FBEC21F04D
:104E1000ABDCE1EC21F003C008F702C007F701C0EA
:104E200006F700C005F7070108530AE1075308E138
:104E30000651120806E2FF0A03E10551880801E263
:104E400003D000018AD70701020E1B6F2A0E1A6FCA
:104E50000801146B150E136F156B100E166F1BC720
:104E600018F81AC717F8000117EC17F00CC734F739
:104E70000BC733F70AC732F709C731F7D1EC22F075
:104E800012006C0EF66E040EF76E196AF2BE198EE1
:104E9000F29E060E0901666F000156EC05F019BE80
:104EA000F28E100EE96E196AF2BE198EF29E090199
:104EB000676B666B00016BEC05F019BEF28E2E0E6F
:104EC000A4A8FED7736E100EE96E196AF2BE198E91
:104ED000F29E0901676B410E666F00016BEC05F0F5
:104EE00019BEF28E2E0EA4A8FED7736E100EE96EB8
:104EF000196AF2BE198EF29E0901676B020E666F87
:104F000000016BEC05F019BEF28E5D0EA4A8FED771
:104F1000736E200EA4A8FED7736E1200016A026A97
:104F2000006A036A0701535102E1525118E0100E62
:104F3000546FD89050375137003603365351035CC5
:104F400002E15251005C07E35251005ED8A0030613
:104F50005351035ED88001360236542FEAD7000140
:104F6000BCEF27F038C751F737C750F70701536B2D
:104F70000A0E526F0001D2D700C037F7070103C0F5
:104F800038F738C752F737C751F7546B120E536FC3
:104F90000001F5EC1EF00150280F0701396F000EDB
:104FA00002203A6F070E4E6F3B0E4D6F4F6B4F5105
:104FB00011081EE34F514D25016E000E4E21036E68
:104FC00001C050F7516F4F513925526F000E3A21F1
:104FD000536F5F6F52C75EF700010DEC16F051C7BB
:104FE000EAFF50C7E9FF01C0EFFF07014F2BDFD7F2
:104FF0003B0E016E070E026E00011200000E016EE4
:10500000C250830B0110C26EC282C2B2FED7C4CF9F
:1050100003F0C3CF01F0C4CF02F012000701516BBF
:10502000010E0501066F0701536B130E526F00014D
:105030004EEC21F0015217E1010EEA6E030EE96E0B
:1050400084EC16F0010EEA6EAF0EE96E84EC16F0F9
:10505000010EEA6ECB0EE96E84EC16F0030E05012C
:10506000076F26D20001010EEA6E1B0EE96E84EC7A
:1050700016F0010EEA6EA70EE96E84EC16F0010E32
:10508000EA6EBA0EE96E84EC16F0010EEA6EA70E17
:10509000E96E84EC16F007015151512B0208D8A09B
:1050A0007ED00DC512F8000179EC21F07C0E0801CC
:1050B000136F050E126F0001CAEC21F00701586B47
:1050C000576B566B2D0E556F0001FBEC21F007015D
:1050D0005151040DF350036A310F016E070E032284
:1050E00001C052F703C053F7000188DF01C000F090
:1050F00002C001F0026A036A53C7EAFF52C7E9FF20
:1051000000C0EFFF01C0ECFF02C0ECFF03C0ECFFEA
:10511000929A899A0FC512F879EC21F07C0E080159
:10512000136F040E126F0001CAEC21F00701586BD7
:10513000576B566B2D0E556F0001FBEC21F00701EC
:105140005151040DF350036A410F016E070E032203
:1051500001C052F703C053F7000150DF01C000F057
:1051600002C001F0026A036A53C7EAFF52C7E9FFAF
:1051700000C0EFFF01C0ECFF02C0ECFF03C0ECFF7A
:1051800092988998020E0701526FFA0E0801186F63
:10519000000197EC16F00701522FF7D77DD73C534B
:1051A00007E13B5305E13A5303E139514A0809E26B
:1051B0004C532CE14B532AE14A5328E149514A0808
:1051C00025E3030E0501076F010EEA6EA70EE96ED7
:1051D000000184EC16F0EA6AD70EE96E84EC16F052
:1051E000010EEA6EAF0EE96E84EC16F0010EEA6E67
:1051F000440EE96E84EC16F0010EEA6EA70EE96E1D
:1052000084EC16F00501066B53D107013C530AE10B
:105210003B5308E13A51010846E2FF0A03E13951E4
:105220001C0841E24C530AE14B5308E14A51010882
:105230003AE2FF0A03E14951760835E23C514C5D00
:1052400032E30BE13B514B5D2EE307E13A514A5DFE
:105250002AE303E14951395D26E20501076B0801A4
:10526000126B00013CEC1DF0010EEA6EA70EE96E18
:1052700084EC16F0010EEA6EAA0EE96E84EC16F0CC
:10528000EA6AD70EE96E84EC16F0010EEA6E440E5F
:10529000E96E84EC16F0010EEA6EF20EE96E84EC13
:1052A00016F005D107010C0E526FFA0E0801186FA7
:1052B000000197EC16F00701522FF7D70DC512F831
:1052C000000179EC21F07C0E0801136F050E126FBE
:1052D0000001CAEC21F00701586B576B566B2D0E7D
:1052E000556F0001FBEC21F089DE01C03DF702C0E3
:1052F0003EF7026A036A03C040F702C03FF7929A82
:10530000899A010EEA6EA70EE96E84EC16F00FC5BD
:1053100012F879EC21F07C0E0801136F040E126F65
:105320000001CAEC21F00701586B576B566B2D0E2C
:10533000556F0001FBEC21F061DE01C04DF702C0AA
:105340004EF7026A036A03C050F702C04FF7929803
:105350008998010E07013925006E000E3A21016E71
:10536000000E3B21026E000E3C21036E4051035C97
:1053700026E30BE13F51025C22E307E13E51015C71
:105380001EE303E13D51005C1AE3010E395D006E3E
:10539000000E3A59016E000E3B59026E000E3C5948
:1053A000036E405D0CE340E102503F5D08E33CE1E9
:1053B00001503E5D04E338E100503D5D35E2010EF1
:1053C0004925006E000E4A21016E000E4B21026E2F
:1053D000000E4C21036E5051035C42E30BE14F5130
:1053E000025C3EE307E14E51015C3AE303E14D51BB
:1053F000005C36E3010E495D006E000E4A59016EF5
:10540000000E4B59026E000E4C59036E505D28E39E
:105410000BE102504F5D24E307E101504E5D20E3B4
:1054200003E100504D5D1CE3010E0501076FEA6EBC
:10543000F70EE96E000184EC16F0EA6AD70EE96E09
:1054400084EC16F0010EEA6E440EE96E84EC16F060
:10545000010EEA6EA70EE96E84EC16F01CD007016F
:10546000020E0501076F010EEA6EFD0EE96E0001E6
:1054700084EC16F0EA6AD70EE96E84EC16F0010EA1
:10548000EA6E440EE96E84EC16F0010EEA6EF20E3E
:10549000E96E84EC16F0020E0801126F00013CEC7C
:1054A0001DF0010EEA6EA70EE96E84EC16F0050100
:1054B00000011200760EF66E1F0EF76E50EC16F01D
:1054C000ADDD0501065304E1000E016E10D00FD0D2
:1054D000040E0701316FFA0E0801186F000197ECF6
:1054E00016F00701312FF7D7010E016E05010001FB
:1054F00041EF44F007014C514E19800B506F4CAFF7
:1055000005D04B1F4C1F4B2BD8B44C2B4EAF05D0A6
:105510004D1F4E1F4D2BD8B44E2B016A026A006AF4
:10552000036A4E5102E14D5118E0100E4F6FD890B2
:105530004B374C37003603364E51035C02E14D5178
:10554000005C07E34D51005ED8A003064E51035E98
:10555000D880013602364F2FEAD750AF05D0011E52
:10556000021E012AD8B4022A00011200196AF2BEF2
:10557000198EF29E4CC775F94BC774F94DC776F971
:10558000F6EC04F019BEF28E12000701536B130EF5
:10559000526F00014EEC21F001C00AF505010A51DD
:1055A000AA0821E07A0EF66E1C0EF76E196AF2BE9A
:1055B000198EF29E1E0E0901666F000156EC05F071
:1055C00019BEF28E0AC54BF7570E07014C6F00014A
:1055D00061EC16F00D0EA4A8FED7736E0A0EA4A8F7
:1055E000FED7736E0501EA6AE20EE96E000184ECF3
:1055F00016F0010EEA6E340EE96E84EC16F0070127
:10560000536B526B00014EEC21F001C04BF701C00F
:1056100013F81B0E0801146F0001EEEC1CF0010ED4
:10562000EA6EA70EE96E84EC16F0EA6AED0EE96EFA
:1056300084EC16F0010EEA6E340EE96E84EC16F07E
:105640000701536B010E526F00014EEC21F001C0B7
:105650004BF701C013F81B0E0801146F0001EEECAC
:105660001CF0010EEA6EA70EE96E84EC16F0EA6AF1
:10567000F80EE96E84EC16F0010EEA6E340EE96E57
:1056800084EC16F00701536B020E526F00014EECD2
:1056900021F001C04BF701C013F81B0E0801146F75
:1056A0000001EEEC1CF0010EEA6EA70EE96E84EC30
:1056B00016F012000701376B386B3E6B3D6B3EC72F
:1056C0003CF73DC73BF73CC73AF73BC739F7376B69
:1056D000536B130E526F00014EEC21F001C00AF51E
:1056E00005010A51AA084DE10701536B526B0001F5
:1056F0004EEC21F0036A0150E8BE030607013F6F3C
:1057000003C040F7536B010E526F00014EEC21F0C5
:10571000036A0150E8BE03060701416F03C042F768
:10572000536B020E526F00014EEC21F0036A0150E0
:10573000E8BE03060701436F03C044F740BF05D02E
:10574000405307E13F51270804E332C740F731C710
:105750003FF742BF05D0425307E14151270804E318
:1057600034C742F733C741F744BF05D0445307E17C
:105770004351270804E336C744F735C743F70ED033
:10578000050132C740F731C73FF734C742F733C787
:1057900041F736C744F735C743F707013FC712F84B
:1057A000000179EC21F07C0E0801136F050E126FD9
:1057B0000001CAEC21F00701586B576B566B2D0E98
:1057C000556F0001FBEC21F019DC02C03AF701C073
:1057D00039F70701586B576B566B050E556F000173
:1057E000FBEC21F0929A899A41C712F879EC21F0EA
:1057F0007C0E0801136F100E126F0001CAEC21F02D
:105800000701586B576B566B2D0E556F0001FBEC63
:1058100021F0FEEC27F002C03CF701C03BF7070186
:10582000586B576B566B050E556F0001FBEC21F062
:1058300094908B9043C712F879EC21F07C0E08010C
:10584000136F040E126F0001CAEC21F00701586BB0
:10585000576B566B2D0E556F0001FBEC21F0FEECE3
:1058600027F002C03EF701C03DF70701586B576BA8
:10587000566B050E556F0001FBEC21F0929889984C
:105880000F0E07014B6FBE0E0801186F000197EC59
:1058900016F007014B2FF7D73ABF07D03A5102084D
:1058A00035E303E139511B0831E340BF2FD04053AA
:1058B00003E13F514B082AE2010E0501076F020E7A
:1058C0000801126F00013CEC1DF0EA6AD20EE96E8D
:1058D00084EC16F0EA6AD70EE96E84EC16F0010E3D
:1058E000EA6E440EE96E84EC16F0010EEA6E660E66
:1058F000E96E84EC16F0010EEA6EF20EE96E84ECAD
:1059000016F0070137C701F014EF30F0372D02D041
:1059100012EF30F0EA6AE20EE96E000184EC16F054
:10592000010EEA6E410EE96E84EC16F0100EE96E7F
:105930003AC74CF739C74BF730EC1EF0A10EF66EA4
:105940001C0EF76E196AF2BE198EF29E030E090143
:10595000666F000156EC05F019BEF28E100EE96E6E
:1059600040C74CF73FC74BF730EC1EF0010EEA6E14
:10597000A70EE96E84EC16F0EA6AED0EE96E84EC8F
:1059800016F0010EEA6E410EE96E84EC16F0100E70
:10599000E96E3CC74CF73BC74BF730EC1EF0AB0E43
:1059A000F66E1C0EF76E196AF2BE198EF29E030E89
:1059B0000901666F000156EC05F019BEF28E100E5B
:1059C000E96E42C74CF741C74BF730EC1EF0010EB1
:1059D000EA6EA70EE96E84EC16F0EA6AF80EE96E3C
:1059E00084EC16F0010EEA6E410EE96E84EC16F0BE
:1059F000100EE96E3EC74CF73DC74BF730EC1EF07A
:105A0000B50EF66E1C0EF76E196AF2BE198EF29E76
:105A1000030E0901666F000156EC05F019BEF28E07
:105A2000100EE96E44C74CF743C74BF730EC1EF03D
:105A3000010EEA6EA70EE96E84EC16F0010EEA6E16
:105A4000A70EE96E84EC16F007013ABF13D03A5363
:105A500003E139514A080EE23CBF0CD03C5303E14C
:105A60003B514A0807E23EBF05D03E5359E13D5144
:105A70004A0856E3020E0801126F00013CEC1DF0CB
:105A8000100EE96E196AF2BE198EF29E3AC767F9D6
:105A900039C766F96BEC05F019BEF28E2C0EA4A87E
:105AA000FED7736E200EA4A8FED7736E100EE96E9B
:105AB000196AF2BE198EF29E3CC767F93BC766F9B8
:105AC0006BEC05F019BEF28E2C0EA4A8FED7736EF7
:105AD000200EA4A8FED7736E100EE96E196AF2BEEE
